:020000040800F2
:100000001805002001010008031800085316000815
:100010000118000829020008091C0008000000005F
:1000200000000000000000000000000007180008A9
:100030002B0200080000000005180008091800083D
:100040001B0100081B0100081B0100081B01000820
:100050001B0100081B0100081B0100081B01000810
:100060001B0100081B0100081B0100081B01000800
:100070001B0100081B0100081B0100081B010008F0
:100080001B0100081B0100081B0100081B010008E0
:100090001B0100081B0100081B0100081B010008D0
:1000A0001B0100081B0100081B0100081B010008C0
:1000B0001B0100081B0100081B0100081B010008B0
:1000C0001B0100081B0100081B0100081B010008A0
:1000D0001B0100081B0100081B0100081B01000890
:1000E0001B0100081B0100081B010008DFF80CD0F1
:1000F00000F02AF800480047491C000818050020B5
:100100000648804706480047FEE7FEE7FEE7FEE7B1
:10011000FEE7FEE7FEE7FEE7FEE7FEE76D180008F4
:10012000ED000008D2B201E000F8012B491EFBD21D
:1001300070470022F6E710B513460A4604461946F2
:10014000FFF7F0FF204610BD064C074D06E0E068C3
:1001500040F0010394E8070098471034AC42F6D30E
:10016000FFF7C8FF2C2200084C22000870B5044697
:1001700000688168C943C9071CD1816821F0010169
:10018000816000F0A9FB05460FE000BF00F0A4FB72
:10019000401B022809D9A06A40F01000A062E06A62
:1001A00040F00100E062012070BD20688068C0431B
:1001B000C007EBD0002070BDF8B5002604460096BD
:1001C00000688168C943C90728D0816841F00101EE
:1001D0008160134813490068B0FBF1F000E0401E55
:1001E00000900028FBD100F077FB054611E000BF2E
:1001F00000F072FB401B02280BD9A06A40F01000EF
:10020000A062E06A40F00100E06284F8246001200E
:10021000F8BD20688068C043C007E9D10020F8BD60
:100220002400002040420F00FEE77047F8B500248C
:10023000009490F824202546012A12D0012280F84B
:1002400024204A681F23072A0DD20668776B521EA6
:1002500002EB820293409F430B6893401F437763F6
:1002600019E00220F8BD06680D2A0AD2376BD21FAA
:1002700002EB820293409F430B6893401F43376316
:1002800009E0F76A0D3A02EB820293409F430B6844
:1002900093401F43F7620A68072306680A2A0AD3B5
:1002A000F7680A3A02EB420293409F438B689340FF
:1002B0001F43F76008E0376902EB420293409F4317
:1002C0008B6893401F4337610A68102A01D0112AB6
:1002D00020D1124B02689A4217D193681B0219D49D
:1002E000936843F4000393600968102912D10C4904
:1002F0000C4A0968B1FBF2F101EB8101490000E011
:10030000491E00910029FBD104E0816A41F02001DF
:100310008162012480F824502046F8BD0024014069
:100320002400002040420F000068C06C70470000AD
:100330002DE9F0414FF0000704003D467ED0A06A51
:10034000002628B9E66284F82460204600F07EF892
:100350002046FFF70BFFA16A01F01001014304D012
:10036000A06A40F01000A06268E0A16A21F4885100
:1003700041F00201A1626268E169237B0A4347EA16
:1003800043010A43A1684FF48077B94208D001299C
:1003900006D0002194F814C0BCF1010F02D00AE08D
:1003A0003946F7E7F3B1A36A43F02003A362E36A97
:1003B00043F00103E3622368D3F804C02CF4694CD2
:1003C0004CEA010CC3F804C023689968DFF870C0D8
:1003D00001EA0C0111439960A168B9420BD00129CF
:1003E00009D00CE0DFF85CC0A3690CEB43330B438E
:1003F00043F40061DFE7218A0D05A5F5801521682A
:10040000CB6A23F470032B43CB62216889680E4BBF
:100410001940914208D1E662A16A21F0020141F03F
:100420000101A162BDE8F081A06A20F0020040F065
:100430001000A062E06A40F00100E0620120F1E7F4
:10044000FDF7E1FF00E0FFFFFE0E1FFF00B585B0E6
:100450000021009101910291039100680E498842A8
:1004600018D10E48816941F400718161816901F4FC
:1004700000710491816941F00401816180696946DC
:1004800000F0040004900220009003200190044832
:1004900000F02CF905B000BD00240140001002401E
:1004A000000801402DE9F84300260D460446009659
:1004B00000F012FA804620688168C90508D5A06A54
:1004C00040F02000A06284F824600120BDE8F88399
:1004D0004168C90503D4C06A10F4700F26D0022009
:1004E00000F08AFA38490968B1FBF0F7206803691F
:1004F00036490B424FEA61014FEAA1121BD1C36892
:100500004FEA611C13EA0C0F15D103690B4221D18C
:10051000C06810421ED114201FE0681C06D045B3ED
:1005200000F0DAF9A0EB0800A84222D820680068A1
:100530008007F2D52AE003690B4202D1C16811425B
:1005400006D0026922490A4206D1C068084203D196
:10055000542002E0292000E0FC204743009813E0EB
:10056000681C0ED02DB100F0B7F9A0EB0800A8422E
:1005700007D9A06A40F00400A06284F82460032038
:10058000A4E70098401C0090B842E9D321686FF0BE
:1005900012000860A06A40F40070A06220688068C1
:1005A000C0F3424007280CD1207B50B9A06A20F448
:1005B0008070A062A06AC00403D4A06A40F0010069
:1005C000A062002082E70000240000202449922439
:1005D0004992240070B5044690F8240001280DD0FB
:1005E000012084F824002046FFF7E6FD02004FF0CA
:1005F000000005D084F82400104670BD022070BDB4
:10060000A16A40F20123994341F48071A1621F4D18
:1006100023681F49AB4218D10E6816F4702F14D00E
:10062000A66A46F48016A6620E68760505D5A66A07
:1006300026F4005646F48056A662A66AF6040AD549
:10064000E66A26F00606E66206E0A66A26F480164A
:10065000A6625E68E9E7E06284F824006FF00200B9
:10066000186020688368C3F34243072B05D1A84272
:1006700008D1096811F4702F04D0816841F4801109
:100680008160B9E7816841F4A001F9E700280140E1
:100690000424014010B5044690F82400012807D036
:1006A000012084F824002046FFF760FD10B107E028
:1006B000022010BDA16A21F4885141F00101A1621C
:1006C000002184F8241010BD70B5044600F004F930
:1006D0000546601C02D004480078044400F0FCF891
:1006E000401BA042FAD370BD180000202DE9F84F3E
:1006F000DFF8B891002409F1040A0AF1040B23463B
:100700000F270BF1040EC9E00125A5402A40AA429B
:100710007DD1674ED1F804C0ACEB0608B44532D0A9
:1007200014DCBCF1030F3AD009DCBCF1000F2AD075
:10073000BCF1010F1CD0BCF1020F31D11DE0BCF1A6
:10074000110F17D0BCF1120F2AD119E0B8F5881F8C
:1007500019D006DCB8F5803F15D0B8F5801F1FD141
:1007600011E0B8F5001F0ED0B8F5041F18D10AE04B
:10077000CB6815E0CB681B1D12E0CB6808330FE097
:10078000CB680C330CE08B682BB1012B4FF00803C6
:1007900003D0456104E0042302E0056100E000238A
:1007A000FF2A01D8064601E000F104064FEA84055D
:1007B00001D9A5F12005D6F8008007FA05FC28EA42
:1007C0000C0803FA05F548EA0508C6F800804D68EC
:1007D000ED0062D5374DAE6946F00106AE61AD69F8
:1007E00024F0030605F001050095334D06EB050CDA
:1007F000DCF80850A607360F07FA06F825EA0805C0
:10080000DFF8B880404503D14FF0000817E044E01E
:10081000DFF8AC80404502D14FF001080FE0DFF86F
:10082000A480404502D14FF0020808E0DFF898802C
:10083000404502D14FF0030801E04FF0040808FAE8
:1008400006F848EA0508CCF808804D68D9F8006039
:10085000ED034D4601D5164300E096432E604D68EA
:10086000DAF80060AD03554601D5164300E0964323
:100870002E604D68DBF80060ED025D4601D5164341
:1008800000E096432E604D68DEF80060AD027546CC
:1008900001D5164300E096432E60641C0D682A467D
:1008A000E5407FF431AFBDE8F88F0000000401405F
:1008B000000011100010024000000140000801403B
:1008C000000C014000100140001401400AB1016118
:1008D00070470904FBE7000001488068704700008A
:1008E0001800002002488168027811448160704736
:1008F00018000020074810B5016841F010010160A0
:10090000032000F067F8002000F006F800F024F85B
:10091000002010BD0020024070B50D4D04464FF47C
:100920007A712878B1FBF0F00A490968B1FBF0F060
:1009300000F0B8FB48B9102C07D200222146501E07
:1009400000F028F800206C6070BD012070BD000030
:1009500018000020240000200C4808B5816941F0EF
:1009600001018161816901F001010091C16941F0DA
:100970008051C161C06900F0805000900448416816
:1009800021F0E06141F00071416008BD00100240BB
:1009900000000140F0B40E4B1B680C46C3F3022369
:1009A000C3F10705042D00D90425191D072901D21B
:1009B000002300E0DB1E012606FA05F1491E214056
:1009C00099409E40761E16403143F0BC01F01DB99F
:1009D0000CED00E0064900F0070208684FF6FF033F
:1009E000184040EA0220034A1043086070470000A4
:1009F0000CED00E00000FA0510B529A401461DCC5D
:100A000086B08DE81D002AA02A4C006804900020C2
:100A1000012923D002293AD010291DD1616822680A
:100A2000D20119D5C1F38342C9031DF8020009D5CB
:100A3000616804AAC1F34041515C1F4AB2FBF1F165
:100A4000484301E01D4948436168490204D440001D
:100A50005FF00301B0FBF1F006B010BD226AC2F3F3
:100A60000121012903D1920701D5C803F4E7022926
:100A700005D1626A920702D549F64040ECE70329A6
:100A8000EAD121688903E7D54FF22440E4E700F07A
:100A900033F96168C1F38131491C4900DAE700008C
:100AA00002030405060708090A0B0C0D0E0F1010AF
:100AB000010200000010024000127A0000093D000F
:100AC0002DE9F84305460078354CC00754D0E0695D
:100AD0000026C00008D4E06940F08050E061E06981
:100AE000012600F0805000902E480168C90512D4FC
:100AF0000168804641F480710160FFF7EDFE074612
:100B000005E000BFFFF7E8FEC01B642823D8D8F833
:100B10000000C005F6D5206A10F4407021D0A988E5
:100B200001F4407181421CD0206A1F49012220F447
:100B300040700A6000220A602062C00711D0FFF7EF
:100B4000CBFE074641F2883808E000BFFFF7C4FE3D
:100B5000C11B414502D90320BDE8F883206A800704
:100B6000F4D5206A696820F44070084320621EB101
:100B7000E06920F08050E0612878800705D5606842
:100B8000A96820F44040084360602878C00605D575
:100B90006068E96820F48000084360600020DBE7BB
:100BA0000010024000700040400442422DE9F0472E
:100BB0000F46050061D0434E306800F00700B84290
:100BC00009D2306820F0070038433060306800F008
:100BD0000700B84251D128683B4C810712D5400725
:100BE00003D5606840F4E06060602878000703D5B2
:100BF000606840F4605060606068A96820F0F000B0
:100C0000084360602878C00728D06868012810D0A1
:100C10002168022810D0890700292EDA616821F0A6
:100C2000030101436160FFF757FE804641F28839B6
:100C30000DE021688903EFE78901EDE7FFF74CFE3E
:100C4000A0EB0801494502D90320BDE8F0876068A0
:100C5000696800F00C00B0EB810FEFD1306800F054
:100C60000700B8420BD9306820F0070038433060E5
:100C7000306800F00700B84201D00120E5E728788D
:100C8000400705D56068E96820F4E06008436060CB
:100C90002878000706D56068296920F4605040EA8A
:100CA000C100606000F038F86168084AC1F30311C0
:100CB000515CC8400649086006480068FFF72CFEF2
:100CC0000020C2E700200240001002401422000869
:100CD000240000201C0000200448054900684968E1
:100CE000044AC1F30221515CC8407047240000202F
:100CF00000100240242200080448054900684968A1
:100D0000044AC1F3C221515CC8407047240000204E
:100D1000001002402422000812A185B00FC98DE8FE
:100D20000F0014A0144A006804905168134801F0A1
:100D30000C03042B10D0082B0ED1C1F38343C9033D
:100D40001DF803000AD5516804AAC1F34041515C63
:100D50000A4A5043B0FBF1F005B0704708494843D8
:100D6000FAE7000002030405060708090A0B0C0D48
:100D70000E0F1010010200000010024000127A0055
:100D800000093D002DE9F84F040070D02078C04DD7
:100D9000C00749D06868C0F38100012807D068689F
:100DA000C0F38100022809D16868C00306D528680D
:100DB000800339D560680028E7D035E06068B0F579
:100DC000803F0BD010B1B0F5A02F11D0286820F4CF
:100DD00080302860286820F4802002E0286840F4F1
:100DE00080302860606890B1FFF776FD06460AE023
:100DF000286840F480202860F0E700BFFFF76CFD12
:100E0000801B642873D828688003F7D50CE0FFF7AF
:100E100063FD064605E000BFFFF75EFD801B64280A
:100E2000F0D828688003F7D420789A4E80074FF0D6
:100E300001094FF0000839D5686810F00C0F07D091
:100E40006868C0F38100022809D16868C00306D42D
:100E50002868800714D52069012808D110E020698E
:100E6000B0B1C6F80090FFF737FD074605E00AE18C
:100E7000FFF732FDC01B0228C4D828688007F7D5C9
:100E80002868616920F0F80040EAC10028600DE0A0
:100E9000C6F80080FFF720FD074604E0FFF71CFDC1
:100EA000C01B022823D828688007F7D420780007C1
:100EB0002CD57948A169D9B1C0F80090FFF70CFD95
:100EC000074604E0FFF708FDC01B02280FD8686A38
:100ED0008007F7D571484FF4FA510068B0FBF1F084
:100EE000009000BF0098411E0091FAD20EE080E011
:100EF000C0F80080FFF7F0FC074604E0FFF7ECFCC9
:100F0000C01B022875D8686A8007F7D4207840078C
:100F100060D5E8690027C00008D4E86940F0805037
:100F2000E861E869012700F0805000905C480168A2
:100F3000C90513D40168834641F480710160FFF74D
:100F4000CBFC824606E000BFFFF7C6FCA0EB0A0020
:100F500064284ED8DBF80000C005F5D5E06801280C
:100F60000AD008B1052813D0286A20F001002862B1
:100F7000286A20F0040002E0286A40F0010028629C
:100F8000E06841F2883B98B1FFF7A6FC82460BE08F
:100F9000286A40F004002862EEE700BFFFF79CFCDF
:100FA000A0EB0A0159455AD8286A8007F6D50CE00B
:100FB000FFF792FC824605E0FFF78EFCA0EB0A01EA
:100FC00059454CD8286A8007F6D41FB1E86920F04B
:100FD0008050E861E06988B36968C1F38101022942
:100FE00044D00228C6F8608004D0FFF775FC0446A0
:100FF00038E034E0FFF770FC074604E0FFF76CFCD4
:10100000C01B02282BD828688001F7D4206AB0F5CD
:10101000803F05D16868A16820F40030084368600B
:10102000D4E908010843696821F474110843686031
:10103000C6F86090FFF750FC044606E025E000BFCC
:10104000FFF74AFC001B022809D828688001F7D561
:101050001BE000BFFFF740FC001B022802D9032061
:10106000BDE8F88F28688001F4D40EE00128F7D09D
:101070006868226A00F48031914204D1616A00F408
:101080007010884201D00120EAE70020E8E7000064
:10109000001002400000424280044242240000202E
:1010A0000070004010B5401EB0F1807F01D30120D8
:1010B00010BD4FF0E02460610F21601700F0A5FD26
:1010C0000020A06107202061002010BD70B590F8BD
:1010D0003C20012A19D0012400F83C4F0222427022
:1010E00050F83C3C5A689D6822F070060A684968CE
:1010F000324325F0800529435A6050F83C2C91601A
:10110000447000210170084670BD022070BD10B50A
:10111000040003D094F83D0010B107E0012010BD99
:10112000002084F83C00204600F00CF8022084F8EF
:101130003D00211D206800F0BDFB012084F83D002A
:10114000002010BD08B500680649884208D106484D
:10115000C16941F00401C161C06900F00400009060
:1011600008BD0000000800400010024070B50446B1
:1011700090F83C00012817D0012584F83C5002204B
:1011800084F83D002068826822F0770222F47F42D2
:1011900082600868502830D00DDC20284DD005DC56
:1011A00098B310283BD148E0022070BD302844D0CD
:1011B000402834D139E0602828D0702806D0B0F516
:1011C000805F2CD0B0F5005F29D10AE0CB68D1E96F
:1011D0000121206800F0B1FB2068816841F07701AF
:1011E00009E0CB68D1E90121206800F0A6FB206866
:1011F000816841F48041816011E0CA6849682068D3
:1012000000F050FC5021206807E016E0CA684968E9
:10121000206800F058FC6021206800F098FB84F8FA
:101220003D50002084F83C0070BDCA6849682068C1
:1012300000F038FC40212068EFE7226801461046A4
:10124000EBE7000000B585B000210091019102910B
:10125000039100680B49884212D10B48816941F023
:10126000080181618069694600F0080004904FF42C
:10127000707000900220019003900448FFF736FA46
:1012800005B000BD0008004000100240000C014005
:1012900070B5044690F83C000D4601280DD001269B
:1012A00084F83C60022084F83D0042B1042A18D042
:1012B000082A2AD00C2A4DD139E0022070BD2068BE
:1012C00000F04EFB2068816941F0080181612068CF
:1012D000816921F004018161206881692A691143D3
:1012E00011E0206800F064FB2068816941F400612E
:1012F00081612068816921F4806181612068816950
:101300002A6941EA0221816124E0206800F07CFB27
:101310002068C16941F00801C1612068C16921F0FC
:101320000401C1612068C1692A69114311E0206884
:1013300000F096FB2068C16941F40061C16120683A
:10134000C16921F48061C1612068C1692A6941EAEB
:101350000221C16184F83D60002084F83C0070BD2A
:1013600010B5040003D094F83D0010B107E001204F
:1013700010BD002084F83C00204600F00CF802204C
:1013800084F83D00211D206800F094FA012084F8C3
:101390003D00002010BD704710B5044600680122D2
:1013A00000F0BEFA09492068884203D1416C41F43B
:1013B000004141642068816801F00701062903D0DB
:1013C000016841F001010160002010BD002C0140C6
:1013D00070B5040004D094F83900002510B106E07F
:1013E000012070BD84F83850204600F023F82420F6
:1013F00084F839002068C16821F40051C16020469A
:1014000000F074FB2068016921F4904101612068BB
:10141000416921F02A0141612068C16841F400510D
:10142000C160E563202084F8390084F83A00002088
:1014300070BD000070B586B0002400940194029441
:101440000394234E0368234902200322224DB34212
:1014500019D18B6943F480438B618B6903F480431A
:1014600004938B6943F004038B618969039201F053
:10147000040104910102CDE9001069462846FFF7F6
:1014800035F928151BE0154EB3421FD1CB6943F443
:101490000033CB61CB6903F4003304938B6943F0D1
:1014A00004038B618969039201F004010491042112
:1014B000CDE9001069462846FFF718F90820CDE964
:1014C0000004694628460294FFF710F906B070BD83
:1014D0000038014000100240000801400044004074
:1014E0002DE9F843044690F83A00994616460D4611
:1014F00020284FD195B18EB194F83800012849D0F9
:10150000012084F838000027E763222084F83A009D
:10151000FFF7E2F9A6858046E68531E00120BDE8C7
:10152000F883E08D401EE085A0684346B0F5805FFB
:101530004FF000024FF020012046CDF8009004D07B
:1015400000F030FB98B10320E9E700F02BFB002806
:10155000F9D1206900282068406803D0C1B225F87D
:10156000011B0DE0C0F3080125F8021B08E020690B
:1015700000282068406801D000F07F0005F8010BCA
:10158000E08D0028CDD1202084F83A0084F838700E
:101590000020C4E70220C2E72DE9F843044690F892
:1015A00039001F4616460D46202850D1A5B19EB1E0
:1015B00094F8380001284AD0012084F838004FF010
:1015C0000008C4F83C80212084F83900FFF784F932
:1015D000A6848146E68426E00120BDE8F883E08CFD
:1015E000401EE084A0684B46B0F5805F4FF00002DB
:1015F0004FF080012046009703D000F0D3FAE8B9FD
:101600000DE000F0CFFAC8B928882168C0F30800BF
:101610004860206908B16D1C05E0AD1C03E021683D
:1016200015F8010B4860E08C0028D8D14B46002209
:1016300040212046009700F0B5FA08B10320CCE71E
:10164000202084F8390084F838800020C5E7022083
:10165000C3E7FEE73EB500250D48009501950295CC
:101660000A498560016001240473057545604FF4E3
:1016700060210461C161FEF75BFE00946946044885
:10168000CDE90145FEF7D2FD3EBD0000002401403A
:10169000280000202DE9F04F85B000242E4800944A
:1016A000019402940394816941F010018161816980
:1016B00001F010010491816941F02001816181698B
:1016C00001F020010491816941F004018161816987
:1016D00001F004010491816941F008018161806990
:1016E000DFF8789000F008004FF460450490002285
:1016F00029464846FFF7EAF8DFF864A048F6F10704
:10170000002239465046FFF7E1F8DFF858B04FF2B3
:101710003808002241465846FFF7D8F800950226BF
:1017200001250396CDE9015469464846FEF7DEFFE0
:1017300000970396CDE9015469465046FEF7D6FF5F
:10174000CDF800800396CDE9015469465846FEF76E
:10175000CDFF05B0BDE8F08F001002400010014041
:1017600000080140000C014010B58EB00024079421
:10177000089409940A940B941C2168460C94FEF773
:10178000D8FC1E481C49C0E900144FF6FF71C0E99F
:10179000024104618461FFF7BAFC4FF48050079066
:1017A00007A91648FFF7E2FC1448FFF7D9FD0B9490
:1017B0000BA912480C94FFF789FC6020CDE90004C6
:1017C0000294002269460D480494FFF761FD04224B
:1017D00069460A48FFF75CFD082269460748FFF79B
:1017E00057FD0C2269460548FFF752FD0348FFF7F5
:1017F00029FD0EB010BD0000000800405800002078
:10180000FEE7704770477047FFF76CB830B593B08C
:1018100028216846FEF78DFC14210AA8FEF789FCF2
:10182000002401200F9410941194010412948DE867
:10183000130004904FF4E010CDE90810022507953D
:101840006846FFF79FFA0F20CDE90A056802CDE947
:101850000C4002210AA80E94FFF7A8F90FA80F95D3
:101860001194FFF72DF913B030BD00000D48016849
:1018700041F00101016041680B4A1140416001687B
:101880000A4A11400160016821F480210160416829
:1018900021F4FE0141604FF41F0181600449C0033F
:1018A00008607047001002400000FFF8FFFFF6FEDE
:1018B00008ED00E0F0B50268164B174C174D4FF0DD
:1018C0008047984205D0B84203D0A04201D0A84238
:1018D00003D122F070064A683243984205D0B842DC
:1018E00003D0A04201D0A84203D122F44074CA68B8
:1018F00022434C6922F08002224302608A68C2625D
:101900000A688262984201D109690163012141613B
:10191000F0BD0000002C0140000400400008004021
:1019200010B501F01F030121046A99408C43046241
:10193000016A9A401143016210BD10B5846842EA01
:10194000032224F47F440A432243826010BD82684C
:1019500022F070020A4342F00701816070470000E4
:1019600030B5026A22F001020262026A43688469A9
:1019700024F073050C682C4322F002058A682A4380
:101980000A4DA8420BD122F00805CA6823F440731F
:101990002A434D6922F004021D438B692B434360A7
:1019A000846149684163026230BD0000002C01403F
:1019B00030B5026A22F010020262026A436884694A
:1019C0000D6824F4E64444EA05248D6822F02002E0
:1019D00042EA05120B4DA8420ED1CD6822F08002DA
:1019E00042EA05124D6923F4406343EA85038D6999
:1019F00022F0400243EA85034360846149688163C1
:101A0000026230BD002C014030B5026A22F48072BF
:101A10000262036A4268C46923F4007324F0730508
:101A20000C682C438D6843EA05230C4DA8420ED167
:101A3000CD6823F4006343EA05234D6922F4405244
:101A400042EA05128D6923F4806342EA051242607E
:101A5000C4614968C163036230BD0000002C0140CD
:101A600030B5026A22F480520262046A4268C36995
:101A70000D6823F4E64343EA05238D6824F40054FB
:101A800044EA0534064DA84204D14D6922F480424F
:101A900042EA85124260C36149680164046230BD54
:101AA000002C014010B5036A046A24F001040462AA
:101AB000846924F0F00444EA021423F00A020A4381
:101AC0008461026210BD10B5036A23F01003036243
:101AD0008369046A23F4704343EA023224F0A003CA
:101AE00043EA01118261016210BD00002DE9F0415D
:101AF000044600680169E26821F440511143016124
:101B00002169A0680843616908432168CA6841F2F5
:101B10000C639A430243CA6020684169A26921F4B8
:101B20004071114341611E49206864253226884274
:101B300002D1FFF7E1F801E0FFF7CEF800EBC001BA
:101B400001EB001160686FF018078000B1FBF0F244
:101B5000B2FBF5F2B1FBF0F37A4303EB8202B1FB87
:101B6000F0F306EB0212B2FBF5F2B3FBF5F302F071
:101B7000F00202EB0312B1FBF0F3B1FBF0F0B0FBAB
:101B8000F5F0784303EB800006EB0010B0FBF5F0B6
:101B9000216800F00F0010448860BDE8F08100006B
:101BA000003801402DE9F041984617460E4604469C
:101BB000069D1DE0681C1BD02DB1FEF78DFEA0EB2D
:101BC0000800A84214D92068C16821F4D071C1600E
:101BD0002068416921F001014161202084F8390029
:101BE00084F83A00002084F838000320BDE8F08132
:101BF0002068006836EA000004D00020B842D9D03E
:101C00000020F3E70120F9E7FEE70907090E0028A5
:101C100004DB00F1E02080F80014704700F00F00B2
:101C200000F1E02080F8141D704702E008C8121F80
:101C300008C1002AFAD170477047002001E001C1B5
:101C4000121F002AFBD17047FEF754FEFFF7DEFD9E
:101C5000FFF720FDFFF788FDB948B8494FF4E1359B
:101C600000240160C0E901540C26C460C0E90446A8
:101C70008461C461FFF7ACFBB148B24940380160F0
:101C8000C0E90154C460C0E904468461C461FFF73F
:101C90009FFBFFF7DFFCAA4800218038FFF77CFBA1
:101CA000A74804218038FFF777FBA5480821803832
:101CB000FFF772FBA2480C218038FFF76DFBA24DA5
:101CC0004FF40066002231462846FEF7FFFD6420EF
:101CD000FEF7FAFC012231462846FEF7F7FD6420A4
:101CE000FEF7F2FC641C052CECDB984CDFF86092EC
:101CF0004FF47A784FF0070A4FF4805B4FF40455A5
:101D00002B46012291498E48FFF7EAFB20784D28A7
:101D10002CD04128F4D18D492B460122891C8848BA
:101D2000FFF7DEFBA07831287DD032287CD0332825
:101D3000E6D12B46012285498148FFF7D1FB207867
:101D40004C2872D0522871D05328D9D15FF00102AB
:101D50004FF480414E464846FEF7B8FD5FF0010261
:101D60004FF400413046FEF7B1FDC9E777492B46F5
:101D70000122491C7248FFF7B3FB2B46012273492D
:101D80006F48FFF7ADFB60782D28207800D14042E6
:101D90006E4920612B460122491C6948FFF7A0FBD0
:101DA0002B46012269496648FFF79AFB60782D2887
:101DB000207800D14042654960612B460122491CD0
:101DC0005F48FFF78DFB2B46012260495C48FFF717
:101DD00087FB60782D28207800D140425B49E06085
:101DE0002B460122491C5648FFF77AFB2B4601225D
:101DF00056495348FFF774FB60782D28207800D1AE
:101E000040425249A0602B460122091D4C48FFF771
:101E100067FBD4E90401D4E9023200F09BF8207991
:101E200018B3032103E02BE05CE07CE07DE0B0FB35
:101E3000F1F02071002647460EE0012000F008F97D
:101E4000B842FAD32079761C864208D0012000F0EF
:101E5000FFF8B842FAD2761C20798642EDD10023F1
:101E60001A461946184600F075F838494E20491DA3
:101E700064230870324801224038FFF78DFB3FE7AA
:101E800032492B460122491C2D48FFF729FB2B46DE
:101E900001222E492A48FFF723FB60782B2802D025
:101EA0002D280ED01AE00026574606E096FBF7F0E4
:101EB00007FB106000F01EF9761C20788642F5DDE5
:101EC0000CE02678002E09DB4FEA0A0796FBF7F0B4
:101ED00007FB106000F00EF9761EF7D5082000F021
:101EE00009F90DE72B46012218491548FFF7F8FAC2
:101EF00020784C280DD0522813D05328BFD101226E
:101F000059464E464846FEF7E1FC01224FF4005187
:101F100028E7012259464E464846FEF7D7FC0022E4
:101F2000F4E70022ECE7002212E7012291034E467B
:101F30004846FEF7CBFC002212E7000000440040B8
:101F4000D8000020003801400008014000000020B7
:101F5000000C01402DE9F047FF2800DDFF20FF299C
:101F600000DDFF21FF2B00DDFF23FF2A00DDFF2224
:101F70006FF0FE04A04200DA2046A14200DA2146BA
:101F8000A34200DA2346A24200DA224600EB0024F4
:101F9000DFF8B090DFF8B0A001EB012503EB0326DA
:101FA00002EB02274FF6FF78002C07DD00222021EC
:101FB0005046FEF78BFCC9F8004008E001222021C2
:101FC0005046FEF783FC04EB0801C9F800101D4CD5
:101FD000241F002D06DD002210215046FEF776FC5E
:101FE000256007E0012210215046FEF76FFC05EB4B
:101FF00008002060134C083C002F06DD0022082159
:102000005046FEF763FC276007E001220821504696
:10201000FEF75CFC07EB080020600A4C0B480C3C08
:102020004FF40041002E05DD0022FEF74FFC266034
:10203000BDE8F0870122FEF749FC06EB08002060AE
:10204000F6E7000040080040000C01400008014095
:10205000FEB50446C51700EB5570C01000EBD071FB
:1020600021F00101401A204EC2B24FF480413046A7
:10207000FEF72CFC04EB9570801000EBD07121F082
:102080000101401AC2B271143046FEF71FFC04EB86
:10209000D475681000EBD07121F00101401AC2B272
:1020A0004FF400413046FEF711FC25F00100201AE4
:1020B000C2B201210D48FEF709FC012000900190F9
:1020C00069460B48FEF7B2F80948FEF783FA642127
:1020D0000748FEF7E7F90648FEF726F984B20448F8
:1020E000FEF7D8FA2046FEBD00100140000801406E
:1020F0002800002070B5454D1421454CE97028B3E7
:10210000012839D0022839D0032848D004284DD0DE
:10211000052857D006285CD007285CD0082873D142
:10212000002210212046FEF7D1FB0022202120466C
:10213000FEF7CCFB002240212046FEF7C7FB2046DD
:10214000BDE8704000228021FEF7C0BB01221021B3
:102150002046FEF7BBFB002220212046FEF7B6FBFF
:10216000002240212046FEF7B1FB002280212046BC
:10217000FEF7ACFB322043E0012200E000221021F8
:102180002046FEF7A3FB002220212046FEF79EFBFF
:10219000012240212046FEF799FB00222BE000227D
:1021A00010212046FEF792FB0122EDE700221021CC
:1021B0002046FEF78BFB012220212046FEF786FBFE
:1021C0000022E6E7002210212046FEF77FFB0122D5
:1021D00007E0002200E0012210212046FEF776FBF6
:1021E000002220212046FEF771FB002240212046DC
:1021F000FEF76CFB012280212046FEF767FBE878A2
:10220000BDE87040FEF760BA70BD0000000000201D
:10221000000801400000000000000000010203046B
:102220000607080900000000010203044C22000810
:1022300000000020280000002A1C0008742200086A
:1022400028000020F00400003A1C000800000000F4
:10225000000000000000000000000000000000007E
:10226000000000000100000010000000000000005D
:042270000024F40052
:04000005080000ED02
:00000001FF
