:080000000C943D000C9400007B
:100008000C9400000C9400000C9400000C94000068
:100018000C9400000C9400000C9400000C94000058
:100028000C9400000C946A000C9400000C940000DE
:100038000C9400000C9400000C9400000C94000038
:100048000C9400000C9400000C9400001027E803A6
:1000580064000A0001000010000110000100000007
:1000680000000000010002006600040004006800AF
:100078000000F894EE27ECBBF1E0FBBFEBBFE5BF57
:100088008DE0A2E0BB27ED938A95E9F780E094E044
:10009800A0E6ED930197E9F7ECE6F0E085919591FC
:1000A800009761F0A591B59105901590BF01F001F9
:1000B80005900D920197E1F7FB01F0CFEFE5EDBF59
:1000C800E4E0EEBFC0E6D1E00C943B01EA93FA937A
:1000D800EFB7EA931A930A931BB10CB1E12FEC71B5
:1000E80089F4E52D5394F0E0E05AFE4F0083E8E0F0
:1000F800E51509F455247394E8E0E71519F4772415
:10010800689420F809911991E991EFBFF991E99163
:1001180018951A937720F1F3E42D4394F0E0E05A10
:10012800FE4F1081E8E0E41509F44424F8947A9429
:100138007894E12F19910895AA93E881E064E7B9CA
:100148008BE18A95F1F7369A349BFECF349AE4B165
:10015800F5B121960895BA93AA93AE81BF81A030D4
:10016800E1E0BE0724F0EFEFF0E0EE83FF83AE811D
:10017800BF81A130EFEFBE0724F4E1E0FFEFEE838B
:10018800FF83AC81BD81A030E1E0BE0724F0EFEF32
:10019800F0E0EC83FD83AC81BD81A130EFEFBE07B9
:1001A80024F4E1E0FFEFEC83FD83AA81BB81A0305A
:1001B800E1E0BE0724F0EFEFF0E0EA83FB83AA81D9
:1001C800BB81A130EFEFBE0724F4E1E0FFEFEA8343
:1001D800FB83A881B981A030E1E0BE0724F0EFEFEE
:1001E800F0E0E883F983A881B981A130EFEFBE0779
:1001F80024F4E1E0FFEFE883F983AE81BF810E9438
:10020800A8021CF4DB98EE8103C0DB9AEE81E15072
:10021800E3BDAC81BD810E94A80224F4DA98EC8188
:10022800FD8105C0DA9AEC81FD81E150FF4FF9BDEF
:10023800E8BDAA81BB810E94A80224F4D998EA816A
:10024800FB8105C0D99AEA81FB81E150FF4FFBBDD4
:10025800EABDA881B9810E94A8021CF4D898E88157
:1002680003C0D89AE881E150ECBF28960895EFE0E2
:10027800EABBE0E0EBBBE8EFE7BBE0E0E8BBEFEFB1
:10028800E4BBE0E0E5BBEFEFE1BBE0E0E2BBEBE6BF
:10029800E3BFE0E0E2BFECBFE1EAEFBDEBE0EEBDBB
:1002A800E0E0EDBDECBDE7BDE6BDEBBDEABDE9BDF7
:1002B800E8BDE2BDECE6E5BDE0E0E4BDE3BDE9BFD5
:1002C800E5BFE4BFEBB9E8E9EAB9E6E8E0BDE0E09C
:1002D800E0BDE3E3E9B9E0E8E8B9E0E4E7B9E7E875
:1002E800E6B9E0E0E0BFEDB9E6BF789412DFF0E0F0
:1002F800E0937001F09371010E943D02AD34E0E09B
:10030800BE0709F0ACC00E9442024F010E9452028F
:100318000E9457028E0E9F1E0E9452028E0E9F1E32
:100328000E945C0221F4F4010E9462024F010E94C3
:1003380042025F010E9452020E945702AE0EBF1E87
:100348000E945202AE0EBF1E0E945C0221F4F5010B
:100358000E9462025F010E9442026F010E945202E3
:100368000E945702CE0EDF1E0E945202CE0EDF1EE2
:100378000E945C0221F4F6010E9462026F010E9451
:1003880042020E9467020E9457020E946C020E9469
:1003980067020E946C02E0936801F09369010E9471
:1003A8005C0251F4E0916801F09169010E946202D7
:1003B800E0936801F09369010E945202A4E6B0E05C
:1003C8000E9495020E9473020E9457020E947802BE
:1003D8000E9473020E947802E0936C01F0936D0111
:1003E8009A928A92BA92AA92DA92CA92A0916801D3
:1003F800B0916901B0DEE0E0E0936E01E0936F0137
:10040800E0916C01F0916D01A0916E01B0916F01C6
:10041800AE17BF07D4F40E947F0240F00E947F020B
:10042800E8F7A4E089DEF297E0F307C0A4E084DEF1
:10043800F297E0F30E947F02E8F7AEE6B1E0ED91B3
:10044800FD913196FE93EE93DBCF0E9484020E94C9
:1004580084020E948402A0E0B0E07DDE08C00E9411
:100468003D02A134E0E0BE0711F00E943D023ECFFC
:10047800FFCFA0917001B091710108950E948D0085
:10048800F0E0E0936A01F0936B010E948D00F0E0C8
:10049800F097A4E6B0E00E94950208950E948D00AE
:1004A800F0E0F0970895AAE0B0E00E949502089560
:1004B800A0916A01B0916B019D970895AFEFBFEFCE
:1004C8000E9495020895E0936801F0936901E6CFD0
:1004D800A0916801B0916901EA0FFB1F0895E093AC
:1004E8006C01F0936D01DACFA0916C01B0916D01B0
:1004F800EA0FFB1F0895A4E00E94A000F397089557
:10050800E0E0F0E0FA93EA930895F195E195F04080
:100518000895FA9FF02DEB9FF00DEA9FE02DF10D65
:10052800089504D0F6DF0EF4F0DF0895E894F7FF9D
:1005380002C0EBDF6894B7FF06C0A095B09511968E
:1005480000F8039400FA089500240A160B0608958B
:00000001FF
